:020000040800F2
:1000000000400120890500089D0400089F040008A5
:10001000A1040008A3040008A504000800000000D3
:10002000000000000000000000000000A70400081D
:10003000A904000800000000AB040008AD0400089B
:10004000D1050008D1050008D1050008D105000838
:10005000D1050008D1050008D1050008D105000828
:10006000D1050008D1050008D1050008D105000818
:10007000D1050008D1050008D1050008D105000808
:10008000D1050008D1050008D1050008D1050008F8
:10009000D1050008D1050008D1050008D1050008E8
:1000A000D1050008D1050008D1050008D1050008D8
:1000B000D1050008D1050008D1050008D1050008C8
:1000C000D1050008D1050008D1050008D1050008B8
:1000D000D1050008D1050008D1050008D1050008A8
:1000E000D1050008D1050008D1050008D105000898
:1000F000DD01000800000000D1050008D10500085E
:10010000D1050008D1050008D1050008D105000877
:10011000D1050008D1050008D10500080000000045
:10012000D1050008000000000000000000000000F1
:0C01300000000000000000005FF808F173
:10013C000348044B834202D0034B03B1184770476A
:10014C000400002004000020000000000548064BBD
:10015C001B1AD90F01EBA301491002D0034B03B1B9
:10016C001847704704000020040000200000000025
:10017C0010B5064C237843B9FFF7DAFF044B13B1E3
:10018C000448AFF300800123237010BD040000204D
:10019C00000000003806000808B5044B1BB10449E8
:1001AC000448AFF30080BDE80840CFE70000000032
:1001BC00080000203806000808B500F059F900F0D6
:1001CC0003F9024B4FF480525A60FEE700E100E065
:1001DC0000BE064B1B693BB1044B00221A61044B59
:1001EC004FF48052C3F88421704700BF00140040C4
:1001FC0000E100E0114B1A6B42F440521A631A6B87
:10020C0042F480621A631A6B42F480721A631A6B9E
:10021C0042F080021A631A6B42F020021A631A6BC6
:10022C0042F010021A6364225A63054A9A63054A23
:10023C00DA631A6B42F001021A63704700600240E5
:10024C00087400402000002008B5084B1A6942F0E1
:10025C0080721A611A6922F080721A61DA6942F0AE
:10026C008072DA61FFF7C6FF08BD00BF003802409C
:10027C00124B9A6942F020029A619A6922F020028C
:10028C009A615A6A42F020025A62A3F509331F227E
:10029C009A621A6822F08A021A601A6842F01002F6
:1002AC001A60DA6842F48072DA606422DA62044A14
:1002BC00936843F020039360704700BF00380240FE
:1002CC00002004E008B52E4B1A6A42F001021A62B3
:1002DC005A6A42F080525A622A4A136823F4C05375
:1002EC0043F40063136002F5E632136843F0040331
:1002FC001360254B1B6813F0040FFAD0224A1368C5
:10030C0043F001031360204B1B6813F0010FFAD06C
:10031C001B4A136823F080731360194B1B6813F08E
:10032C00007FFAD1164A136843F001031360144B93
:10033C001B6813F0020FFAD0114B9A6842F440027A
:10034C009A609A6842F440229A609A6822F4803249
:10035C009A601A6842F080721A60094B1B6813F09D
:10036C00007FFAD0064A936843F003039360044B72
:10037C009B6803F00C030C2BF9D100F09BF808BD23
:10038C000038024000700040003C024008B5FFF706
:10039C006FFF08BD0B4B9A6942F000529A619A6943
:1003AC0022F000529A615A6A42F000525A62A3F546
:1003BC00E2334FF4FA629A601A6842F003021A6050
:1003CC00704700BF0038024008B5C82204490548F0
:1003DC0000F01EF9044A136843F00103136008BDD2
:1003EC005006000820000020001400400D4BDA6974
:1003FC0042F00102DA61DA6942F00202DA61A3F535
:10040C0060531A6822F4704222F00C021A601A68C7
:10041C0042F40C5242F008021A60DA6842F480424C
:10042C00DA6070470038024008B500F043F80D4B15
:10043C001B680D4AA2FB03239B09013BB3F1807F90
:10044C000AD24FF0E0225361084BF02183F82310BD
:10045C000023936107231361044B002283F82320AC
:10046C0008BD00BF00000020D34D621000ED00E07D
:10047C0008B500F01DF8FFF725FFFFF7D5FFFFF7D4
:10048C00B5FFFFF7E1FEFFF785FFFFF77FFF08BD24
:10049C00FEE7FEE7FEE7FEE7FEE7704770477047B2
:1004AC00024A136801331360704700BFE800002054
:1004BC00704700002B4B9B6803F00C030C2B44D8AB
:1004CC00DFE803F0074343431D43434321434343C6
:1004DC002500244B5B68C3F3423301334FF40042D5
:1004EC0002FA03F3204A13601E4B9B68C3F30313F9
:1004FC001E4AD15C1C4A1368CB40136070471A4BE0
:10050C001B4A1A60F0E7184B1A4A1A60ECE71549B7
:10051C008A688B68C2F383421748825CC3F38153A9
:10052C000133896811F4803F07D1114901FB02F2B4
:10053C00B2FBF3F20C4B1A60D6E70E4901FB02F248
:10054C00B2FBF3F2084B1A60CEE7064B5B68C3F3C1
:10055C00423301334FF4004202FA03F3024A1360B0
:10056C00C2E700BF00380240000000201807000856
:10057C000024F40000127A0028070008FFF798FF07
:10058C000B480C490C4A002302E0D458C4500433E5
:10059C00C4188C42F9D3094A094C002301E01360BA
:1005AC000432A242FBD300F00FF8FFF705FE7047B0
:1005BC0000000020040000203C070008040000207C
:1005CC00EC000020FEE7000070B500260C4D0D4C31
:1005DC00641BA410A64209D100F028F800260A4D8D
:1005EC000A4C641BA410A64205D170BD55F8043BFF
:1005FC0098470136EEE755F8043B98470136F2E789
:10060C0034070008340700083407000838070008CE
:10061C000A44914200F1FF3300D1704710B511F834
:10062C00014B914203F8014FF9D110BDF8B500BF51
:10063C00F8BC08BC9E467047F8B500BFF8BC08BCB7
:04064C009E4670470F
:100650000008810803098309020A7E0AF80A700B60
:10066000E30B520CBD0C240D840DE00D350E830EF2
:10067000CB0E0C0F460F780FA30FC50FE00FF20F34
:10068000FD0FFF0FF90FEA0FD40FB50F8E0F600F9C
:100690002A0FED0EA80E5D0E0B0EB30D550DF10CCD
:1006A000890C1B0CAA0B340BBC0A400AC309430972
:1006B000C2084008BF073D07BC063C06BF0543050E
:1006C000CB045504E40376030E03AA024C02F401A2
:1006D000A20157011201D5009F0071004A002B00B2
:1006E00015000600000002000D001F003A005C002B
:1006F0008700B900F30034017C01CA011F027B02AC
:10070000DB024203AD031C048F0407058105FD05D0
:100710007C06FC067E07FF070000000000000000CA
:100720000102030406070809030406080C10182038
:040730003000000095
:04073400A501000813
:040738007D01000837
:04073C0068FF1F0033
:040000050800058961
:00000001FF
