:020000040800F2
:1000000000400120C1030008D5020008D702000803
:10001000D9020008DB020008DD0200080000000031
:10002000000000000000000000000000DF020008E7
:10003000E102000800000000E3020008E5020008F9
:10004000090400080904000809040008090400085C
:10005000090400080904000809040008090400084C
:10006000090400080904000809040008090400083C
:10007000090400080904000809040008090400082C
:10008000090400080904000809040008090400081C
:10009000090400080904000809040008090400080C
:1000A00009040008090400080904000809040008FC
:1000B00009040008090400080904000809040008EC
:1000C00009040008090400080904000809040008DC
:1000D00009040008090400080904000809040008CC
:1000E00009040008090400080904000809040008BC
:1000F00009040008000000000904000809040008C1
:10010000090400080904000809040008090400089B
:1001100009040008090400080904000800000000A0
:1001200009040008000000000000000000000000BA
:0C01300000000000000000005FF808F173
:10013C0010B5054C237833B9044B13B10448AFF315
:10014C0000800123237010BD04000020000000007B
:10015C005404000808B5034B1BB103490348AFF323
:10016C00008008BD000000000800002054040008B6
:10017C0008B500F09FF8002003E080F00100074B69
:10018C005861074B1A68074BA3FB02135B096421E8
:10019C0001FB1323002BF4D0EFE700BF000002405B
:1001AC00200000201F85EB51024A136843F4807332
:1001BC00136070470000024008B52A4B1A6A42F0DF
:1001CC0001021A625A6A42F080525A62264A136835
:1001DC0043F004031360244B1B6813F0040FFAD094
:1001EC00214A136843F0010313601F4B1B6813F083
:1001FC00010FFAD01B4A136823F080731360194B5C
:10020C001B6813F0007FFAD1164A136843F0010300
:10021C001360144B1B6813F0020FFAD0114B9A6841
:10022C0042F440029A609A6842F440229A609A68BA
:10023C0022F480329A601A6842F080721A60094B7C
:10024C001B6813F0007FFAD0064A936843F003034F
:10025C009360044B9B6803F00C030C2BF9D100F05A
:10026C0045F808BD00380240003C024008B500F0DB
:10027C003DF80D4B1B680D4AA2FB03239B09013B68
:10028C00B3F1807F0AD24FF0E0225361084BF0218A
:10029C0083F823100023936107231361044B00227E
:1002AC0083F8232008BD00BF00000020D34D62104E
:1002BC0000ED00E008B500F017F8FFF77DFFFFF741
:1002CC00D5FFFFF771FF08BDFEE7FEE7FEE7FEE78F
:1002DC00FEE7704770477047024A1368013313609A
:1002EC00704700BF20000020704700002B4B9B681C
:1002FC0003F00C030C2B44D8DFE803F00743434313
:10030C001D434343214343432500244B5B68C3F304
:10031C00423301334FF4004202FA03F3204A1360D4
:10032C001E4B9B68C3F303131E4AD15C1C4A136813
:10033C00CB40136070471A4B1B4A1A60F0E7184BFE
:10034C001A4A1A60ECE715498A688B68C2F3834233
:10035C001748825CC3F381530133896811F4803FE1
:10036C0007D1114901FB02F2B2FBF3F20C4B1A60FC
:10037C00D6E70E4901FB02F2B2FBF3F2084B1A600E
:10038C00CEE7064B5B68C3F3423301334FF40042B4
:10039C0002FA03F3024A1360C2E700BF00380240BE
:1003AC00000000206C0400080024F40000127A0005
:1003BC007C040008FFF798FF0B480C490C4A0023FB
:1003CC0002E0D458C4500433C4188C42F9D3094AFF
:1003DC00094C002301E013600432A242FBD300F06D
:1003EC000FF8FFF7C5FE7047000000200400002046
:1003FC00900400080400002024000020FEE7000008
:10040C0070B500260C4D0D4C641BA410A64209D1EE
:10041C0000F01AF800260A4D0A4C641BA410A642E0
:10042C0005D170BD55F8043B98470136EEE755F8F9
:10043C00043B98470136F2E788040008880400085A
:10044C00880400088C040008F8B500BFF8BC08BC90
:10045C009E467047F8B500BFF8BC08BC9E46704776
:10046C000000000000000000010203040607080958
:0C047C00030406080C10182030000000DB
:040488006101000806
:04048C003D01000826
:0404900068FF1F00E2
:04000005080003C12B
:00000001FF
